:100000000C942A000C943C000C943C000C943C0092
:100010000C943C000C943C000C943C000C943C0070
:100020000C943C000C943C000C943C000C943C0060
:100030000C943C000C943C000C943C000C943C0050
:100040000C943C000C943C000C943C000C943C0040
:100050000C943C0011241FBECFE5D8E0DEBFCDBF1D
:1000600020E0A0E6B0E001C01D92A136B207E1F7A2
:100070000E9444000C9466000C9400000E945A00F8
:1000800008950E94620008950E944F000E943E0061
:100090000E944100809360000E945600F9CFBD9AF3
:1000A000BE98BF9ABC9A83E58DB908958FB9779BA6
:1000B000FECF089588E18AB986E880BD87E689B9D0
:1000C00010BC08955F9BFECF8CB10895F894FFCFCC
:00000001FF
