:100000000C942A000C943C000C943C000C943C0092
:100010000C943C000C943C000C943C000C943C0070
:100020000C943C000C943C000C943C000C943C0060
:100030000C943C000C943C000C943C000C943C0050
:100040000C943C000C943C000C943C000C943C0040
:100050000C943C0011241FBECFE5D8E0DEBFCDBF1D
:1000600020E0A0E6B0E001C01D92A136B207E1F7A2
:100070000E9404010C942A010C940000442319F0FE
:100080004130C9F10895813091F028F08230D9F0E3
:10009000833029F108952AB381E090E002C0880FEF
:1000A000991F6A95E2F7809582238ABB089527B34A
:1000B00081E090E002C0880F991F6A95E2F7809571
:1000C000822387BB089524B381E090E002C0880FAB
:1000D000991F6A95E2F78095822384BB089521B326
:1000E00081E090E002C0880F991F6A95E2F7809541
:1000F000822381BB0895813089F028F08230C9F0D5
:10010000833011F108952AB381E090E002C0880F96
:10011000991F6A95E2F7822B8ABB089527B381E085
:1001200090E002C0880F991F6A95E2F7822B87BB87
:10013000089524B381E090E002C0880F991F6A956A
:10014000E2F7822B84BB089521B381E090E002C0E6
:10015000880F991F6A95E2F7822B81BB0895813041
:1001600089F028F08230C9F0833011F108952BB363
:1001700081E090E002C0880F991F6A95E2F782271C
:100180008BBB089528B381E090E002C0880F991FCF
:100190006A95E2F7822788BB089525B381E090E055
:1001A00002C0880F991F6A95E2F7822785BB0895E0
:1001B00022B381E090E002C0880F991F6A95E2F7B0
:1001C000822782BB089541E062E082E00E943E0007
:1001D000089562E082E00E94AF00089541E067E088
:1001E00082E00E943E00089567E082E00E94AF0036
:1001F000089541E063E083E00E943E00089563E0DB
:1002000083E00E94AF0008950E941F010E94E30056
:100210000E94EE000E94F9000E9426018093600077
:10022000813339F0823341F08033B1F70E94E90025
:10023000F3CF0E94F400F0CF0E94FF00EDCFBD98F5
:10024000BE9ABF98BC9883E48DB90895779BFECF82
:080250008FB10895F894FFCF6F
:00000001FF
